{
  "contractName": "BecazCrowdsale",
  "abi": [
    {
      "constant": true,
      "inputs": [],
      "name": "weiRaised",
      "outputs": [
        {
          "name": "",
          "type": "uint256"
        }
      ],
      "payable": false,
      "stateMutability": "view",
      "type": "function"
    },
    {
      "constant": true,
      "inputs": [],
      "name": "wallet",
      "outputs": [
        {
          "name": "",
          "type": "address"
        }
      ],
      "payable": false,
      "stateMutability": "view",
      "type": "function"
    },
    {
      "constant": false,
      "inputs": [
        {
          "name": "beneficiary",
          "type": "address"
        }
      ],
      "name": "buyTokens",
      "outputs": [],
      "payable": true,
      "stateMutability": "payable",
      "type": "function"
    },
    {
      "constant": true,
      "inputs": [],
      "name": "token",
      "outputs": [
        {
          "name": "",
          "type": "address"
        }
      ],
      "payable": false,
      "stateMutability": "view",
      "type": "function"
    },
    {
      "inputs": [
        {
          "name": "initialRate",
          "type": "uint256"
        },
        {
          "name": "wallet",
          "type": "address"
        },
        {
          "name": "tokenAddr",
          "type": "address"
        },
        {
          "name": "ownerAddr",
          "type": "address"
        }
      ],
      "payable": false,
      "stateMutability": "nonpayable",
      "type": "constructor"
    },
    {
      "payable": true,
      "stateMutability": "payable",
      "type": "fallback"
    },
    {
      "anonymous": false,
      "inputs": [
        {
          "indexed": true,
          "name": "purchaser",
          "type": "address"
        },
        {
          "indexed": true,
          "name": "beneficiary",
          "type": "address"
        },
        {
          "indexed": false,
          "name": "value",
          "type": "uint256"
        },
        {
          "indexed": false,
          "name": "amount",
          "type": "uint256"
        }
      ],
      "name": "TokensPurchased",
      "type": "event"
    },
    {
      "constant": false,
      "inputs": [
        {
          "name": "newRate",
          "type": "uint256"
        }
      ],
      "name": "setRate",
      "outputs": [],
      "payable": false,
      "stateMutability": "nonpayable",
      "type": "function"
    },
    {
      "constant": true,
      "inputs": [],
      "name": "rate",
      "outputs": [
        {
          "name": "",
          "type": "uint256"
        }
      ],
      "payable": false,
      "stateMutability": "view",
      "type": "function"
    }
  ],
  "bytecode": "0x608060405234801561001057600080fd5b50604051608080610bd38339810180604052608081101561003057600080fd5b50805160208201516040830151606090930151600160008190559293919283836001600160a01b0382166100af576040517f08c379a0000000000000000000000000000000000000000000000000000000008152600401808060200182810382526025815260200180610bae6025913960400191505060405180910390fd5b6001600160a01b03811661010e576040517f08c379a0000000000000000000000000000000000000000000000000000000008152600401808060200182810382526024815260200180610b686024913960400191505060405180910390fd5b600392909255600280546001600160a01b03199081166001600160a01b03938416179091556001805490911691909216179055610157600582610162602090811b61078e17901c565b505050600655610284565b610172828261020360201b60201c565b156101de57604080517f08c379a000000000000000000000000000000000000000000000000000000000815260206004820152601f60248201527f526f6c65733a206163636f756e7420616c72656164792068617320726f6c6500604482015290519081900360640190fd5b6001600160a01b0316600090815260209190915260409020805460ff19166001179055565b60006001600160a01b038216610264576040517f08c379a0000000000000000000000000000000000000000000000000000000008152600401808060200182810382526022815260200180610b8c6022913960400191505060405180910390fd5b506001600160a01b03166000908152602091909152604090205460ff1690565b6108d5806102936000396000f3fe6080604052600436106100555760003560e01c80632c4e722e1461006757806334fcf4371461008e5780634042b66f146100b8578063521eb273146100cd578063ec8ac4d8146100fe578063fc0c546a14610124575b610065610060610139565b61013d565b005b34801561007357600080fd5b5061007c610256565b60408051918252519081900360200190f35b34801561009a57600080fd5b50610065600480360360208110156100b157600080fd5b503561025c565b3480156100c457600080fd5b5061007c6102c6565b3480156100d957600080fd5b506100e26102cc565b604080516001600160a01b039092168252519081900360200190f35b6100656004803603602081101561011457600080fd5b50356001600160a01b031661013d565b34801561013057600080fd5b506100e26102db565b3390565b60008054600101908190553461015383826102ea565b600061015e82610387565b600454909150610174908363ffffffff6103a416565b6004556101818482610408565b836001600160a01b0316610193610139565b6001600160a01b03167f6faf93231a456e552dbc9961f58d9713ee4f2e69d15f1975b050ef0911053a7b8484604051808381526020018281526020019250505060405180910390a36101e58483610252565b6101ed610412565b6101f78483610252565b505060005481146102525760408051600160e51b62461bcd02815260206004820152601f60248201527f5265656e7472616e637947756172643a207265656e7472616e742063616c6c00604482015290519081900360640190fd5b5050565b60065490565b61026d60053363ffffffff61044e16565b6102c15760408051600160e51b62461bcd02815260206004820152601e60248201527f444f45535f4e4f545f484156455f524154455f5345545445525f524f4c450000604482015290519081900360640190fd5b600655565b60045490565b6002546001600160a01b031690565b6001546001600160a01b031690565b6001600160a01b03821661033257604051600160e51b62461bcd02815260040180806020018281038252602a815260200180610856602a913960400191505060405180910390fd5b806102525760408051600160e51b62461bcd02815260206004820152601960248201527f43726f776473616c653a20776569416d6f756e74206973203000000000000000604482015290519081900360640190fd5b600061039e600654836104b890919063ffffffff16565b92915050565b6000828201838110156104015760408051600160e51b62461bcd02815260206004820152601b60248201527f536166654d6174683a206164646974696f6e206f766572666c6f770000000000604482015290519081900360640190fd5b9392505050565b6102528282610514565b6002546040516001600160a01b03909116903480156108fc02916000818181858888f1935050505015801561044b573d6000803e3d6000fd5b50565b60006001600160a01b03821661049857604051600160e51b62461bcd0281526004018080602001828103825260228152602001806108346022913960400191505060405180910390fd5b506001600160a01b03166000908152602091909152604090205460ff1690565b6000826104c75750600061039e565b828202828482816104d457fe5b041461040157604051600160e51b62461bcd0281526004018080602001828103825260218152602001806108136021913960400191505060405180910390fd5b600154610252906001600160a01b0316838363ffffffff61053116565b604080516001600160a01b038416602482015260448082018490528251808303909101815260649091019091526020810180516001600160e01b0316600160e01b63a9059cbb0217905261058690849061058b565b505050565b61059d826001600160a01b0316610752565b6105f15760408051600160e51b62461bcd02815260206004820152601f60248201527f5361666545524332303a2063616c6c20746f206e6f6e2d636f6e747261637400604482015290519081900360640190fd5b60006060836001600160a01b0316836040518082805190602001908083835b6020831061062f5780518252601f199092019160209182019101610610565b6001836020036101000a0380198251168184511680821785525050505050509050019150506000604051808303816000865af19150503d8060008114610691576040519150601f19603f3d011682016040523d82523d6000602084013e610696565b606091505b5091509150816106f05760408051600160e51b62461bcd02815260206004820181905260248201527f5361666545524332303a206c6f772d6c6576656c2063616c6c206661696c6564604482015290519081900360640190fd5b80511561074c5780806020019051602081101561070c57600080fd5b505161074c57604051600160e51b62461bcd02815260040180806020018281038252602a815260200180610880602a913960400191505060405180910390fd5b50505050565b6000813f7fc5d2460186f7233c927e7db2dcc703c0e500b653ca82273b7bfad8045d85a47081158015906107865750808214155b949350505050565b610798828261044e565b156107ed5760408051600160e51b62461bcd02815260206004820152601f60248201527f526f6c65733a206163636f756e7420616c72656164792068617320726f6c6500604482015290519081900360640190fd5b6001600160a01b0316600090815260209190915260409020805460ff1916600117905556fe536166654d6174683a206d756c7469706c69636174696f6e206f766572666c6f77526f6c65733a206163636f756e7420697320746865207a65726f206164647265737343726f776473616c653a2062656e656669636961727920697320746865207a65726f20616464726573735361666545524332303a204552433230206f7065726174696f6e20646964206e6f742073756363656564a165627a7a7230582010dcbf085694afe05300adc10c567d3ced849217f6ecf8d6ee8ce52a2d6d9684002943726f776473616c653a20746f6b656e20697320746865207a65726f2061646472657373526f6c65733a206163636f756e7420697320746865207a65726f206164647265737343726f776473616c653a2077616c6c657420697320746865207a65726f2061646472657373",
  "source": "pragma solidity >=0.4.21 <0.6.0;\n\nimport \"@openzeppelin/contracts/access/Roles.sol\";\nimport \"@openzeppelin/contracts/crowdsale/Crowdsale.sol\";\n\ncontract BecazCrowdsale is Crowdsale{\n  using Roles for Roles.Role;\n\n  Roles.Role private _owners;\n  uint256 private _changeableRate;\n\n  constructor(uint256 initialRate, address payable wallet, IERC20 tokenAddr, address ownerAddr)\n  Crowdsale(1, wallet, tokenAddr)\n  public\n  {\n    _owners.add(ownerAddr);\n    _changeableRate = initialRate;\n  }\n\n  function setRate(uint256 newRate) public\n  {\n    require(_owners.has(msg.sender), \"DOES_NOT_HAVE_RATE_SETTER_ROLE\");\n    _changeableRate = newRate;\n  }\n\n  function rate() public view returns(uint256) {\n    return _changeableRate;\n  }\n\n  function _getTokenAmount(uint256 weiAmount) internal view returns (uint256) {\n      return weiAmount.mul(_changeableRate);\n  }\n\n  /* function testGetTokenAmount(uint256 weiAmount) public view returns (uint256) {\n      return _getTokenAmount(weiAmount);\n  } */\n\n}\n",
  "sourcePath": "/projects/SmartContracts/Crowdsale/contracts/BecazCrowdsale.sol",
  "compiler": {
    "name": "solc",
    "version": "0.5.8+commit.23d335f2.Emscripten.clang"
  },
  "schemaVersion": "3.0.16",
  "updatedAt": "2019-12-18T10:57:11.124Z",
  "devdoc": {
    "methods": {
      "buyTokens(address)": {
        "details": "low level token purchase ***DO NOT OVERRIDE*** This function has a non-reentrancy guard, so it shouldn't be called by another `nonReentrant` function.",
        "params": {
          "beneficiary": "Recipient of the token purchase"
        }
      },
      "token()": {
        "return": "the token being sold."
      },
      "wallet()": {
        "return": "the address where funds are collected."
      },
      "weiRaised()": {
        "return": "the amount of wei raised."
      }
    }
  },
  "userdoc": {
    "methods": {}
  }
}